:060000000A128A110C280F
:10000800FE00030EF1000A08F2000A128A119D2868
:100018000A128A110F28F60183010A128A11602830
:1000280001308316031788008901013083160313F2
:1000380085001030870083120313071283160313F9
:10004800880183120313850187018801831603132E
:100058000F088F3940388F000F148B170B17831236
:1000680003130C13831603130C17831203131F08AF
:100078003F3940389F00831603131F129F12C33065
:10008800831203139F05831603139F13831203130D
:100098001F140330F300F30B4F28F03083120313BF
:1000A80094051412941683160313141794177608DC
:1000B80083120313930008000A128A1114200A12EB
:1000C8008A11831203139F186A286B287228033039
:1000D800F400F40B6D28831203139F148517760818
:1000E800930083160313141C7A287B28752883121F
:1000F80003138513051785170430F5003D30F40008
:10010800F40B8428F50B842889288312031385139C
:10011800FF30930083160313141C932894288E2809
:100128008312031313088800051365280A128A111D
:100138000C28831203130C1FA228A328B1281F0C14
:10014800F000700C0F39003A031DAB28AC28B0281A
:100158001E08F0007008F6000C1372088A00710E71
:080168008300FE0E7E0E09006B
:08400000FF3FFF3FFF3FFF3FC0
:04400E00D420FF3F7C
:00000001FF
